:100000000C9462000C948A000C948A000C948A0070
:100010000C948A000C948A000C948A000C948A0038
:100020000C948A000C948A000C948A000C948A0028
:100030000C948A000C948A000C948A000C948A0018
:100040000C94C3030C948A000C948A000C948A00CC
:100050000C948A000C948A000C948A000C948A00F8
:100060000C948A000C948A000000000024002700F1
:100070002A0000000000250028002B0000000000DE
:1000800023002600290004040404040404040202DA
:100090000202020203030303030301020408102007
:1000A0004080010204081020010204081020000012
:1000B0000008000201000003040700000000000027
:1000C0000000750611241FBECFEFD8E0DEBFCDBF04
:1000D00011E0A0E0B1E0E4EDFDE002C005900D927A
:1000E000AE35B107D9F721E0AEE5B1E001C01D9210
:1000F000A53AB207E1F710E0C2E6D0E004C02197CC
:10010000FE010E94E206C136D107C9F70E940D0424
:100110000C94E8060C9400002F923F924F925F924D
:100120006F927F928F929F92AF92BF92CF92DF9207
:10013000EF92FF920F931F93CF93DF93CDB7DEB76C
:100140002D970FB6F894DEBF0FBECDBF6B017C01BB
:10015000498780909101082D10E0C801880F991FF0
:10016000880F991FFC01EB5CFE4F40815181628139
:10017000738141505109610971099E012F5F3F4F01
:1001800059014C155D056E057F0564F5F50185E2A5
:100190009E2F9A19981508F47DC001501109B98550
:1001A0000B1B1109B7FD13959501EAE7F1E0822FCA
:1001B0008A19881508F091C0D9018D919D01A82F49
:1001C000B0E0A45FBE4F8C91828FB985BF3F41F0F4
:1001D000AF014A5751404017510711F48068828F90
:1001E0003196E5CF8F5C9E4FDC014D915D916D9115
:1001F0007C9181E090E0A0E0B0E0841B950BA60B21
:10020000B70BC816D906EA06FB060CF4BFCF912C33
:10021000F7FE0CC085E28983F094E094D094C094FA
:10022000C11CD11CE11CF11C99249394892D90E0F0
:10023000F8013197FD87EC879801281B390B220FB5
:10024000331F220F331FA9014B5C5E4F5B874A8728
:100250003501680E791E9814F8F4AA85BB855E9066
:100260004E903E902E90BB87AA87C701B601A2018F
:1002700091010E948706F30121933F01A22FB0E074
:10028000A20191010E94A606C61AD70AE80AF90A35
:100290009394E1CF81937CCFF9859F2FFF3F09F4A1
:1002A00090E080918001811178CF2C853D85291BBC
:1002B000310997FD339544E2E82FF0E0E217F307A8
:1002C0000CF06BCFEA0DFB1D9081911103C04083B0
:1002D0008F5FF2CF9A30E0F760CF2D960FB6F8948B
:1002E000DEBF0FBECDBFDF91CF911F910F91FF9069
:1002F000EF90DF90CF90BF90AF909F908F907F90C6
:100300006F905F904F903F902F900895833081F0D1
:1003100028F4813099F08230A9F008958730A9F04F
:100320008830C9F08430B1F4809180008F7D03C0A3
:10033000809180008F7780938000089584B58F77B7
:1003400084BD089584B58F7DFBCF8091B0008F77F9
:100350008093B00008958091B0008F7DF9CFCF9346
:10036000DF93282F30E0F901E255FF4F8491F90126
:10037000E656FF4FD491F901EA57FF4FC491CC23C1
:10038000A1F081110E948601EC2FF0E0EE0FFF1F1B
:10039000E458FF4FA591B491EC91ED2381E090E0FA
:1003A00009F480E0DF91CF91089580E090E0FACFEA
:1003B0001F93CF93DF93282F30E0F901E255FF4FD1
:1003C0008491F901E656FF4FD491F901EA57FF4FA6
:1003D000C491CC23A9F0162F81110E948601EC2F25
:1003E000F0E0EE0FFF1FEE58FF4FA591B4918FB7CD
:1003F000F894EC91111108C0D095DE23DC938FBFE7
:10040000DF91CF911F910895DE2BF8CFCF93DF932B
:10041000C82FD0E080919201D81758F4ED2FF0E06A
:10042000E658FE4F60917D0187850E94D801DF5F0D
:10043000F1CFEC2FF0E0E658FE4F60917B01878111
:10044000DF91CF910C94D8011F93CF93DF93C82FE6
:10045000D0E0C658DE4F60917A018F810E94D801AA
:1004600010E06A96809192011817A8F4E12FF0E04D
:10047000888190E0012E02C0959587950A94E2F755
:1004800080FF07C0E658FE4F60917C0187850E947F
:10049000D8011F5FE7CFDF91CF911F910895CF93D0
:1004A000DF93C82FD0E080919101D81758F4ED2F39
:1004B000F0E0E658FE4F60917B0187810E94D801F1
:1004C000DF5FF1CFEC2FF0E0E658FE4F60917D0149
:1004D0008785DF91CF910C94D8010F931F93CF9311
:1004E000C82FE82FF0E0E658FE4F60917C01878529
:1004F0000E94D80101E010E002C0000F111FCA9550
:10050000E2F7C0E080919101C81788F4EC2FF0E089
:10051000E658FE4F828D90E080239123892B29F0AD
:1005200060917A0187810E94D801CF5FEBCFCF9194
:100530001F910F910895CF93DF9390E0FC01E65651
:10054000FF4F24918A579F4FFC0184918823D1F05B
:1005500090E0880F991FFC01E859FF4FA591B491D5
:10056000FC01EE58FF4FC591D491623071F49FB7F2
:10057000F8943C91822F809583238C93E8812E2BD5
:1005800028839FBFDF91CF9108958FB7F894EC91A6
:100590002E2B2C938FBFF6CF8230910538F0880F29
:1005A000991F880F991F05970197F1F70895CF922A
:1005B000DF92EF92FF92CF9380917F0181119DC0D6
:1005C0003FB7F8948091760190917701A0917801DE
:1005D000B091790126B5A89B05C02F3F19F001966F
:1005E000A11DB11D3FBFBA2FA92F982F8827820FB9
:1005F000911DA11DB11D42E0880F991FAA1FBB1FAD
:100600004A95D1F72091A40140919C0150919D0100
:1006100060919E0170919F016C017D01C41AD50A01
:10062000E60AF70A4091A2015091A301211104C0EA
:100630004091A0015091A101052E000C660B770B93
:10064000C416D506E606F7068CF180939C019093BC
:100650009D01A0939E01B0939F0180919301909181
:100660007E01911129C02223B1F01092A401809142
:1006700093018F5F8093930190919201891710F0FD
:100680001092930180919301CF91FF90EF90DF90B2
:10069000CF900C946D020E944F028091A201909124
:1006A000A301892B21F381E08093A401CF91FF90D6
:1006B000EF90DF90CF9008952223B1F01092A40123
:1006C000809193018F5F809393019091910189179D
:1006D00010F01092930180919301CF91FF90EF90D1
:1006E000DF90CF900C9424020E9406028091A20118
:1006F0009091A301892B21F3D6CF80917E01C0E098
:1007000081111AC080919201C81780F68C2F0E9427
:100710006D028091A0019091A1010E94CC028C2FCA
:100720000E944F028091A2019091A301009711F0C5
:100730000E94CC02CF5FE6CF80919101C81708F0EC
:10074000B5CF8C2F0E9424028091A0019091A1012D
:100750000E94CC028C2F0E9406028091A2019091EF
:10076000A301009711F00E94CC02CF5FE5CF2FB715
:10077000F89460917201709173018091740190916D
:1007800075012FBF08951F920F920FB60F9211247B
:100790002F933F938F939F93AF93BF938091720159
:1007A00090917301A0917401B09175013091710124
:1007B00023E0230F2D3758F50196A11DB11D20937D
:1007C00071018093720190937301A0937401B093AF
:1007D00075018091760190917701A0917801B09197
:1007E00079010196A11DB11D809376019093770147
:1007F000A0937801B0937901BF91AF919F918F91B0
:100800003F912F910F900FBE0F901F90189526E8E3
:10081000230F0296A11DB11DD2CFCF93DF93CDB789
:10082000DEB72C970FB6F894DEBF0FBECDBF78941D
:1008300084B5826084BD84B5816084BD85B58260E5
:1008400085BD85B5816085BD80916E008160809396
:100850006E001092810080918100826080938100FF
:10086000809181008160809381008091800081600F
:10087000809380008091B10084608093B10080916A
:10088000B00081608093B00080917A008460809392
:100890007A0080917A00826080937A0080917A0059
:1008A000816080937A0080917A00806880937A00DA
:1008B0001092C1008091000190910101A09102016C
:1008C000B091030189879A87AB87BC8788E0E4E011
:1008D000F1E0DE01119601900D928A95E1F781E039
:1008E00080937E0110927F011092800194E090939A
:1008F000910198E09093920110927A0180937C018B
:1009000080937B0110927D01FE013196A9E8B1E050
:10091000CE01099621912D938E179F07D9F78985CE
:10092000809381018A85809382018B8580938301E6
:100930008C858093840110E080919101181798F4C0
:10094000812F90E09C0126583E4F790161E0F9012A
:1009500087810E949B0260917B01F70187810E9441
:10096000D8011F5FE9CF10E080919201181750F075
:1009700090919101E4E9F1E080E09817B1F01192D3
:100980008F5FFBCF812F90E09C0126583E4F79016D
:1009900061E0F90187850E949B0260917D01F7016A
:1009A00087850E94D8011F5FDFCF80E00E944F0241
:1009B00080E00E94060288E097E09093A101809376
:1009C000A0011092A3011092A2011092A40162E072
:1009D0008EE00E949B0262E08FE00E949B0262E038
:1009E00080E10E949B0262E081E10E949B0262E042
:1009F00082E10E949B02BB24B39480E0E82E80E059
:100A0000F82E8091700181119EC08EE00E94AF018E
:100A1000892BC1F480916F018B2580936F018EE04B
:100A20000E94AF018C0160916A0170916B01072EE9
:100A3000000C880B990B41E00E948C000E94D702A9
:100A4000012B69F380916F01882371F100916A0194
:100A500010916B010E94B70340905E0150905F01BE
:100A600060906001709061019B01AC01241935090F
:100A70004609570929013A0134E643165104610435
:100A8000710490F060935E0170935F018093600148
:100A9000909361010F3047E2140734F40F5F1F4F4A
:100AA00010936B0100936A0160916A0170916B0170
:100AB000072E000C880B990B41E00E948C000E94CD
:100AC000D70281E10E94AF01892BE9F48091700186
:100AD0008B258093700181E10E94AF018C01809190
:100AE0007001882309F4F1C060916A0170916B0173
:100AF000072E000C880B990B41E00E948C000E948D
:100B0000D702012B41F382E10E94AF01892BA1F4AE
:100B100010926F0110926E01809170018111DFC0FF
:100B200010926B0110926A0141E060E070E0CB012D
:100B30000E948C000E94D702E114F10409F461CFF5
:100B40000E9400005ECF8FE00E94AF018C0180E127
:100B50000E94AF014C018EE00E94AF016C01012B9D
:100B600059F500916C0110916D010E94B7034090FE
:100B70006601509067016090680170906901641986
:100B80007509860997096531710581059105A0F000
:100B90000F3057E2150734F40F5F1F4F10936D01AC
:100BA00000936C010E94B703609366017093670124
:100BB0008093680190936901892851F500916C0137
:100BC00010916D010E94B70340906601509067013B
:100BD0006090680170906901641975098609970928
:100BE000653171058105910598F01016110634F4F0
:100BF0000150110910936D0100936C010E94B7031D
:100C00006093660170936701809368019093690116
:100C1000CD28C1F480916E018B2580936E018EE00A
:100C20000E94AF018C0160916C0170916D01072EE3
:100C3000000C880B990B4FEF0E948C000E94D7028A
:100C4000012B69F380916E01882371F100916C0191
:100C500010916D010E94B7034090620150906301B2
:100C600060906401709065019B01AC012419350905
:100C70004609570929013A0138EE431633E0530675
:100C80006104710488F06093620170936301809342
:100C90006401909365011016110684F40150110946
:100CA00010936D0100936C0160916C0170916D0166
:100CB000072E000C880B990B4FEFFFCE10926D01A1
:100CC00010926C0110926E01EFCF60916C017091E7
:100CD0006D01072E000C880B990B4FEF0ECF109271
:100CE0006D0110926C014FEF20CFEAE7F1E080ED4B
:100CF00097E097A386A311A610A612A6178A118EB5
:100D000012A213A214A215A2148215820895052E10
:100D100097FB1EF400940E949E0657FD07D00E9488
:100D2000B10607FC03D04EF40C949E0650954095F6
:100D3000309521953F4F4F4F5F4F08959095809587
:100D4000709561957F4F8F4F9F4F08950E94D306F6
:100D5000A59F900DB49F900DA49F800D911D11240F
:100D60000895A1E21A2EAA1BBB1BFD010DC0AA1FEC
:100D7000BB1FEE1FFF1FA217B307E407F50720F004
:100D8000A21BB30BE40BF50B661F771F881F991F7F
:100D90001A9469F760957095809590959B01AC01C8
:100DA000BD01CF010895A29FB001B39FC001A39FD1
:100DB000700D811D1124911DB29F700D811D112494
:100DC000911D0895EE0FFF1F0590F491E02D0994F9
:040DD000F894FFCFC5
:100DD4000A0B0C0D09080706050403023F065B4FC6
:100DE400666D7D077F6F777C395E79713D76300E55
:100DF400763800543F7367506D783E3E00766E5BE4
:100E04000040806308010000000A00000064000044
:100E140000E803000010270000A086010040420FF4
:0E0E2400008096980000E1F50500CA9A3B0098
:00000001FF
